{
  "_format": "hh-sol-artifact-1",
  "contractName": "WavePortal",
  "sourceName": "contracts/WavePortal.sol",
  "abi": [
    {
      "inputs": [],
      "stateMutability": "payable",
      "type": "constructor"
    },
    {
      "anonymous": false,
      "inputs": [
        {
          "indexed": true,
          "internalType": "address",
          "name": "from",
          "type": "address"
        },
        {
          "indexed": false,
          "internalType": "uint256",
          "name": "timestamp",
          "type": "uint256"
        },
        {
          "indexed": false,
          "internalType": "enum WavePortal.MessageType",
          "name": "messageType",
          "type": "uint8"
        },
        {
          "indexed": false,
          "internalType": "string",
          "name": "body",
          "type": "string"
        }
      ],
      "name": "NewMessage",
      "type": "event"
    },
    {
      "inputs": [],
      "name": "getMessages",
      "outputs": [
        {
          "components": [
            {
              "internalType": "address",
              "name": "from",
              "type": "address"
            },
            {
              "internalType": "enum WavePortal.MessageType",
              "name": "messageType",
              "type": "uint8"
            },
            {
              "internalType": "string",
              "name": "body",
              "type": "string"
            },
            {
              "internalType": "uint256",
              "name": "timestamp",
              "type": "uint256"
            }
          ],
          "internalType": "struct WavePortal.Message[]",
          "name": "",
          "type": "tuple[]"
        }
      ],
      "stateMutability": "view",
      "type": "function"
    },
    {
      "inputs": [
        {
          "internalType": "enum WavePortal.MessageType",
          "name": "_messageType",
          "type": "uint8"
        }
      ],
      "name": "getTotalFor",
      "outputs": [
        {
          "internalType": "uint256",
          "name": "",
          "type": "uint256"
        }
      ],
      "stateMutability": "view",
      "type": "function"
    },
    {
      "inputs": [
        {
          "internalType": "address",
          "name": "",
          "type": "address"
        }
      ],
      "name": "lastWavedAt",
      "outputs": [
        {
          "internalType": "uint256",
          "name": "",
          "type": "uint256"
        }
      ],
      "stateMutability": "view",
      "type": "function"
    },
    {
      "inputs": [],
      "name": "latestWinner",
      "outputs": [
        {
          "internalType": "address",
          "name": "",
          "type": "address"
        }
      ],
      "stateMutability": "view",
      "type": "function"
    },
    {
      "inputs": [
        {
          "internalType": "uint256",
          "name": "",
          "type": "uint256"
        }
      ],
      "name": "messages",
      "outputs": [
        {
          "internalType": "address",
          "name": "from",
          "type": "address"
        },
        {
          "internalType": "enum WavePortal.MessageType",
          "name": "messageType",
          "type": "uint8"
        },
        {
          "internalType": "string",
          "name": "body",
          "type": "string"
        },
        {
          "internalType": "uint256",
          "name": "timestamp",
          "type": "uint256"
        }
      ],
      "stateMutability": "view",
      "type": "function"
    },
    {
      "inputs": [
        {
          "internalType": "enum WavePortal.MessageType",
          "name": "_messageType",
          "type": "uint8"
        },
        {
          "internalType": "string",
          "name": "_body",
          "type": "string"
        }
      ],
      "name": "sendMessage",
      "outputs": [],
      "stateMutability": "nonpayable",
      "type": "function"
    },
    {
      "inputs": [
        {
          "internalType": "enum WavePortal.MessageType",
          "name": "",
          "type": "uint8"
        }
      ],
      "name": "totalsByType",
      "outputs": [
        {
          "internalType": "uint256",
          "name": "",
          "type": "uint256"
        }
      ],
      "stateMutability": "view",
      "type": "function"
    }
  ],
  "bytecode": "0x60806040526200004f6040518060400160405280601481526020017f57617665206f722073656e642062656572203a440000000000000000000000008152506200005560201b62000a6a1760201c565b620001e9565b620000f5816040516024016200006c919062000162565b6040516020818303038152906040527f41304fac000000000000000000000000000000000000000000000000000000007bffffffffffffffffffffffffffffffffffffffffffffffffffffffff19166020820180517bffffffffffffffffffffffffffffffffffffffffffffffffffffffff8381831617835250505050620000f860201b60201c565b50565b60008151905060006a636f6e736f6c652e6c6f679050602083016000808483855afa5050505050565b60006200012e8262000186565b6200013a818562000191565b93506200014c818560208601620001a2565b6200015781620001d8565b840191505092915050565b600060208201905081810360008301526200017e818462000121565b905092915050565b600081519050919050565b600082825260208201905092915050565b60005b83811015620001c2578082015181840152602081019050620001a5565b83811115620001d2576000848401525b50505050565b6000601f19601f8301169050919050565b61173c80620001f96000396000f3fe608060405234801561001057600080fd5b506004361061007d5760003560e01c806348c0a03d1161005b57806348c0a03d146101035780635ff6cbf314610133578063611814d714610151578063a42a46631461016d5761007d565b806306ef53e0146100825780630d80fefd146100a057806315f074a5146100d3575b600080fd5b61008a61019d565b60405161009791906110d6565b60405180910390f35b6100ba60048036038101906100b59190610e54565b6101c3565b6040516100ca94939291906110f1565b60405180910390f35b6100ed60048036038101906100e89190610dd7565b6102b8565b6040516100fa9190611241565b60405180910390f35b61011d60048036038101906101189190610dd7565b610345565b60405161012a9190611241565b60405180910390f35b61013b61035d565b604051610148919061113d565b60405180910390f35b61016b60048036038101906101669190610e00565b610535565b005b61018760048036038101906101829190610dae565b610a52565b6040516101949190611241565b60405180910390f35b600360009054906101000a900473ffffffffffffffffffffffffffffffffffffffff1681565b600081815481106101d357600080fd5b90600052602060002090600302016000915090508060000160009054906101000a900473ffffffffffffffffffffffffffffffffffffffff16908060000160149054906101000a900460ff169080600101805461022f9061145a565b80601f016020809104026020016040519081016040528092919081815260200182805461025b9061145a565b80156102a85780601f1061027d576101008083540402835291602001916102a8565b820191906000526020600020905b81548152906001019060200180831161028b57829003601f168201915b5050505050908060020154905084565b6000600160008360018111156102f7577f4e487b7100000000000000000000000000000000000000000000000000000000600052602160045260246000fd5b600181111561032f577f4e487b7100000000000000000000000000000000000000000000000000000000600052602160045260246000fd5b8152602001908152602001600020549050919050565b60016020528060005260406000206000915090505481565b60606000805480602002602001604051908101604052809291908181526020016000905b8282101561052c57838290600052602060002090600302016040518060800160405290816000820160009054906101000a900473ffffffffffffffffffffffffffffffffffffffff1673ffffffffffffffffffffffffffffffffffffffff1673ffffffffffffffffffffffffffffffffffffffff1681526020016000820160149054906101000a900460ff166001811115610445577f4e487b7100000000000000000000000000000000000000000000000000000000600052602160045260246000fd5b600181111561047d577f4e487b7100000000000000000000000000000000000000000000000000000000600052602160045260246000fd5b81526020016001820180546104919061145a565b80601f01602080910402602001604051908101604052809291908181526020018280546104bd9061145a565b801561050a5780601f106104df5761010080835404028352916020019161050a565b820191906000526020600020905b8154815290600101906020018083116104ed57829003601f168201915b5050505050815260200160028201548152505081526020019060010190610381565b50505050905090565b4260b4600260003373ffffffffffffffffffffffffffffffffffffffff1673ffffffffffffffffffffffffffffffffffffffff168152602001908152602001600020546105829190611361565b106105c2576040517f08c379a00000000000000000000000000000000000000000000000000000000081526004016105b990611221565b60405180910390fd5b42600260003373ffffffffffffffffffffffffffffffffffffffff1673ffffffffffffffffffffffffffffffffffffffff168152602001908152602001600020819055506001806000846001811115610644577f4e487b7100000000000000000000000000000000000000000000000000000000600052602160045260246000fd5b600181111561067c577f4e487b7100000000000000000000000000000000000000000000000000000000600052602160045260246000fd5b815260200190815260200160002060008282546106999190611361565b92505081905550600060405180608001604052803373ffffffffffffffffffffffffffffffffffffffff168152602001846001811115610702577f4e487b7100000000000000000000000000000000000000000000000000000000600052602160045260246000fd5b8152602001838152602001428152509050600081908060018154018082558091505060019003906000526020600020906003020160009091909190915060008201518160000160006101000a81548173ffffffffffffffffffffffffffffffffffffffff021916908373ffffffffffffffffffffffffffffffffffffffff16021790555060208201518160000160146101000a81548160ff021916908360018111156107d7577f4e487b7100000000000000000000000000000000000000000000000000000000600052602160045260246000fd5b021790555060408201518160010190805190602001906107f8929190610c64565b506060820151816002015550506000606460045442446108189190611361565b6108229190611361565b61082c91906114bd565b905061086d6040518060400160405280601581526020017f52616e646f6d20232067656e657261746564202573000000000000000000000081525082610b03565b8060048190555060328110156109fa576108bc6040518060400160405280600781526020017f257320776f6e210000000000000000000000000000000000000000000000000081525033610b9f565b6000655af3107a400090504781111561090a576040517f08c379a0000000000000000000000000000000000000000000000000000000008152600401610901906111e1565b60405180910390fd5b60003373ffffffffffffffffffffffffffffffffffffffff1682604051610930906110c1565b60006040518083038185875af1925050503d806000811461096d576040519150601f19603f3d011682016040523d82523d6000602084013e610972565b606091505b50509050806109b6576040517f08c379a00000000000000000000000000000000000000000000000000000000081526004016109ad90611201565b60405180910390fd5b33600360006101000a81548173ffffffffffffffffffffffffffffffffffffffff021916908373ffffffffffffffffffffffffffffffffffffffff16021790555050505b3373ffffffffffffffffffffffffffffffffffffffff167f98b2561fe4f763a3d8fe76ddd9231af1d6535a37fa25d8542980c5a446579ba1428686604051610a449392919061125c565b60405180910390a250505050565b60026020528060005260406000206000915090505481565b610b0081604051602401610a7e919061115f565b6040516020818303038152906040527f41304fac000000000000000000000000000000000000000000000000000000007bffffffffffffffffffffffffffffffffffffffffffffffffffffffff19166020820180517bffffffffffffffffffffffffffffffffffffffffffffffffffffffff8381831617835250505050610c3b565b50565b610b9b8282604051602401610b199291906111b1565b6040516020818303038152906040527f9710a9d0000000000000000000000000000000000000000000000000000000007bffffffffffffffffffffffffffffffffffffffffffffffffffffffff19166020820180517bffffffffffffffffffffffffffffffffffffffffffffffffffffffff8381831617835250505050610c3b565b5050565b610c378282604051602401610bb5929190611181565b6040516020818303038152906040527f319af333000000000000000000000000000000000000000000000000000000007bffffffffffffffffffffffffffffffffffffffffffffffffffffffff19166020820180517bffffffffffffffffffffffffffffffffffffffffffffffffffffffff8381831617835250505050610c3b565b5050565b60008151905060006a636f6e736f6c652e6c6f679050602083016000808483855afa5050505050565b828054610c709061145a565b90600052602060002090601f016020900481019282610c925760008555610cd9565b82601f10610cab57805160ff1916838001178555610cd9565b82800160010185558215610cd9579182015b82811115610cd8578251825591602001919060010190610cbd565b5b509050610ce69190610cea565b5090565b5b80821115610d03576000816000905550600101610ceb565b5090565b6000610d1a610d15846112bf565b61129a565b905082815260208101848484011115610d3257600080fd5b610d3d848285611418565b509392505050565b600081359050610d54816116c8565b92915050565b600081359050610d69816116df565b92915050565b600082601f830112610d8057600080fd5b8135610d90848260208601610d07565b91505092915050565b600081359050610da8816116ef565b92915050565b600060208284031215610dc057600080fd5b6000610dce84828501610d45565b91505092915050565b600060208284031215610de957600080fd5b6000610df784828501610d5a565b91505092915050565b60008060408385031215610e1357600080fd5b6000610e2185828601610d5a565b925050602083013567ffffffffffffffff811115610e3e57600080fd5b610e4a85828601610d6f565b9150509250929050565b600060208284031215610e6657600080fd5b6000610e7484828501610d99565b91505092915050565b6000610e898383611040565b905092915050565b610e9a816113b7565b82525050565b610ea9816113b7565b82525050565b6000610eba82611300565b610ec48185611323565b935083602082028501610ed6856112f0565b8060005b85811015610f125784840389528151610ef38582610e7d565b9450610efe83611316565b925060208a01995050600181019050610eda565b50829750879550505050505092915050565b610f2d81611406565b82525050565b610f3c81611406565b82525050565b6000610f4d8261130b565b610f57818561133f565b9350610f67818560208601611427565b610f70816115d9565b840191505092915050565b6000610f868261130b565b610f908185611350565b9350610fa0818560208601611427565b610fa9816115d9565b840191505092915050565b6000610fc1603483611350565b9150610fcc826115ea565b604082019050919050565b6000610fe4602683611350565b9150610fef82611639565b604082019050919050565b6000611007600783611350565b915061101282611688565b602082019050919050565b600061102a600083611334565b9150611035826116b1565b600082019050919050565b60006080830160008301516110586000860182610e91565b50602083015161106b6020860182610f24565b50604083015184820360408601526110838282610f42565b915050606083015161109860608601826110a3565b508091505092915050565b6110ac816113fc565b82525050565b6110bb816113fc565b82525050565b60006110cc8261101d565b9150819050919050565b60006020820190506110eb6000830184610ea0565b92915050565b60006080820190506111066000830187610ea0565b6111136020830186610f33565b81810360408301526111258185610f7b565b905061113460608301846110b2565b95945050505050565b600060208201905081810360008301526111578184610eaf565b905092915050565b600060208201905081810360008301526111798184610f7b565b905092915050565b6000604082019050818103600083015261119b8185610f7b565b90506111aa6020830184610ea0565b9392505050565b600060408201905081810360008301526111cb8185610f7b565b90506111da60208301846110b2565b9392505050565b600060208201905081810360008301526111fa81610fb4565b9050919050565b6000602082019050818103600083015261121a81610fd7565b9050919050565b6000602082019050818103600083015261123a81610ffa565b9050919050565b600060208201905061125660008301846110b2565b92915050565b600060608201905061127160008301866110b2565b61127e6020830185610f33565b81810360408301526112908184610f7b565b9050949350505050565b60006112a46112b5565b90506112b0828261148c565b919050565b6000604051905090565b600067ffffffffffffffff8211156112da576112d96115aa565b5b6112e3826115d9565b9050602081019050919050565b6000819050602082019050919050565b600081519050919050565b600081519050919050565b6000602082019050919050565b600082825260208201905092915050565b600081905092915050565b600082825260208201905092915050565b600082825260208201905092915050565b600061136c826113fc565b9150611377836113fc565b9250827fffffffffffffffffffffffffffffffffffffffffffffffffffffffffffffffff038211156113ac576113ab6114ee565b5b828201905092915050565b60006113c2826113dc565b9050919050565b60008190506113d7826116b4565b919050565b600073ffffffffffffffffffffffffffffffffffffffff82169050919050565b6000819050919050565b6000611411826113c9565b9050919050565b82818337600083830152505050565b60005b8381101561144557808201518184015260208101905061142a565b83811115611454576000848401525b50505050565b6000600282049050600182168061147257607f821691505b602082108114156114865761148561157b565b5b50919050565b611495826115d9565b810181811067ffffffffffffffff821117156114b4576114b36115aa565b5b80604052505050565b60006114c8826113fc565b91506114d3836113fc565b9250826114e3576114e261151d565b5b828206905092915050565b7f4e487b7100000000000000000000000000000000000000000000000000000000600052601160045260246000fd5b7f4e487b7100000000000000000000000000000000000000000000000000000000600052601260045260246000fd5b7f4e487b7100000000000000000000000000000000000000000000000000000000600052602160045260246000fd5b7f4e487b7100000000000000000000000000000000000000000000000000000000600052602260045260246000fd5b7f4e487b7100000000000000000000000000000000000000000000000000000000600052604160045260246000fd5b6000601f19601f8301169050919050565b7f547279696e6720746f207769746864726177206d6f7265206d6f6e657920746860008201527f656e2074686520636f6e7472616374206861732e000000000000000000000000602082015250565b7f4661696c656420746f207769746864726177206d6f6e65792066726f6d20636f60008201527f6e74726163740000000000000000000000000000000000000000000000000000602082015250565b7f5761697420336d00000000000000000000000000000000000000000000000000600082015250565b50565b600281106116c5576116c461154c565b5b50565b6116d1816113b7565b81146116dc57600080fd5b50565b600281106116ec57600080fd5b50565b6116f8816113fc565b811461170357600080fd5b5056fea2646970667358221220fe8438aba88f1f4351c215577dd99f5505fbfd5ff1eacfb351b8d491c57f2c5364736f6c63430008040033",
  "linkReferences": {},
  "deployedLinkReferences": {}
}