{
  "_format": "hh-sol-artifact-1",
  "contractName": "WavePortal",
  "sourceName": "contracts/WavePortal.sol",
  "abi": [
    {
      "inputs": [],
      "stateMutability": "nonpayable",
      "type": "constructor"
    },
    {
      "anonymous": false,
      "inputs": [
        {
          "indexed": true,
          "internalType": "address",
          "name": "from",
          "type": "address"
        },
        {
          "indexed": false,
          "internalType": "uint256",
          "name": "timestamp",
          "type": "uint256"
        },
        {
          "indexed": false,
          "internalType": "string",
          "name": "body",
          "type": "string"
        }
      ],
      "name": "NewMessage",
      "type": "event"
    },
    {
      "inputs": [],
      "name": "getMessages",
      "outputs": [
        {
          "components": [
            {
              "internalType": "address",
              "name": "from",
              "type": "address"
            },
            {
              "internalType": "enum WavePortal.MessageType",
              "name": "messageType",
              "type": "uint8"
            },
            {
              "internalType": "string",
              "name": "body",
              "type": "string"
            },
            {
              "internalType": "uint256",
              "name": "timestamp",
              "type": "uint256"
            }
          ],
          "internalType": "struct WavePortal.Message[]",
          "name": "",
          "type": "tuple[]"
        }
      ],
      "stateMutability": "view",
      "type": "function"
    },
    {
      "inputs": [
        {
          "internalType": "enum WavePortal.MessageType",
          "name": "_messageType",
          "type": "uint8"
        }
      ],
      "name": "getTotalFor",
      "outputs": [
        {
          "internalType": "uint256",
          "name": "",
          "type": "uint256"
        }
      ],
      "stateMutability": "view",
      "type": "function"
    },
    {
      "inputs": [
        {
          "internalType": "uint256",
          "name": "",
          "type": "uint256"
        }
      ],
      "name": "messages",
      "outputs": [
        {
          "internalType": "address",
          "name": "from",
          "type": "address"
        },
        {
          "internalType": "enum WavePortal.MessageType",
          "name": "messageType",
          "type": "uint8"
        },
        {
          "internalType": "string",
          "name": "body",
          "type": "string"
        },
        {
          "internalType": "uint256",
          "name": "timestamp",
          "type": "uint256"
        }
      ],
      "stateMutability": "view",
      "type": "function"
    },
    {
      "inputs": [
        {
          "internalType": "enum WavePortal.MessageType",
          "name": "_messageType",
          "type": "uint8"
        },
        {
          "internalType": "string",
          "name": "_body",
          "type": "string"
        }
      ],
      "name": "sendMessage",
      "outputs": [],
      "stateMutability": "nonpayable",
      "type": "function"
    },
    {
      "inputs": [
        {
          "internalType": "enum WavePortal.MessageType",
          "name": "",
          "type": "uint8"
        }
      ],
      "name": "totalsByType",
      "outputs": [
        {
          "internalType": "uint256",
          "name": "",
          "type": "uint256"
        }
      ],
      "stateMutability": "view",
      "type": "function"
    }
  ],
  "bytecode": "0x60806040523480156200001157600080fd5b506200005d6040518060400160405280601481526020017f57617665206f722073656e642062656572203a440000000000000000000000008152506200006360201b620006ef1760201c565b620001f7565b62000103816040516024016200007a919062000170565b6040516020818303038152906040527f41304fac000000000000000000000000000000000000000000000000000000007bffffffffffffffffffffffffffffffffffffffffffffffffffffffff19166020820180517bffffffffffffffffffffffffffffffffffffffffffffffffffffffff83818316178352505050506200010660201b60201c565b50565b60008151905060006a636f6e736f6c652e6c6f679050602083016000808483855afa5050505050565b60006200013c8262000194565b6200014881856200019f565b93506200015a818560208601620001b0565b6200016581620001e6565b840191505092915050565b600060208201905081810360008301526200018c81846200012f565b905092915050565b600081519050919050565b600082825260208201905092915050565b60005b83811015620001d0578082015181840152602081019050620001b3565b83811115620001e0576000848401525b50505050565b6000601f19601f8301169050919050565b610f7580620002076000396000f3fe608060405234801561001057600080fd5b50600436106100575760003560e01c80630d80fefd1461005c57806315f074a51461008f57806348c0a03d146100bf5780635ff6cbf3146100ef578063611814d71461010d575b600080fd5b61007660048036038101906100719190610963565b610129565b6040516100869493929190610b44565b60405180910390f35b6100a960048036038101906100a491906108e6565b61021e565b6040516100b69190610bd4565b60405180910390f35b6100d960048036038101906100d491906108e6565b6102ab565b6040516100e69190610bd4565b60405180910390f35b6100f76102c3565b6040516101049190610b90565b60405180910390f35b6101276004803603810190610122919061090f565b61049b565b005b6000818154811061013957600080fd5b90600052602060002090600302016000915090508060000160009054906101000a900473ffffffffffffffffffffffffffffffffffffffff16908060000160149054906101000a900460ff169080600101805461019590610dd4565b80601f01602080910402602001604051908101604052809291908181526020018280546101c190610dd4565b801561020e5780601f106101e35761010080835404028352916020019161020e565b820191906000526020600020905b8154815290600101906020018083116101f157829003601f168201915b5050505050908060020154905084565b60006001600083600181111561025d577f4e487b7100000000000000000000000000000000000000000000000000000000600052602160045260246000fd5b6001811115610295577f4e487b7100000000000000000000000000000000000000000000000000000000600052602160045260246000fd5b8152602001908152602001600020549050919050565b60016020528060005260406000206000915090505481565b60606000805480602002602001604051908101604052809291908181526020016000905b8282101561049257838290600052602060002090600302016040518060800160405290816000820160009054906101000a900473ffffffffffffffffffffffffffffffffffffffff1673ffffffffffffffffffffffffffffffffffffffff1673ffffffffffffffffffffffffffffffffffffffff1681526020016000820160149054906101000a900460ff1660018111156103ab577f4e487b7100000000000000000000000000000000000000000000000000000000600052602160045260246000fd5b60018111156103e3577f4e487b7100000000000000000000000000000000000000000000000000000000600052602160045260246000fd5b81526020016001820180546103f790610dd4565b80601f016020809104026020016040519081016040528092919081815260200182805461042390610dd4565b80156104705780601f1061044557610100808354040283529160200191610470565b820191906000526020600020905b81548152906001019060200180831161045357829003601f168201915b50505050508152602001600282015481525050815260200190600101906102e7565b50505050905090565b60018060008460018111156104d9577f4e487b7100000000000000000000000000000000000000000000000000000000600052602160045260246000fd5b6001811115610511577f4e487b7100000000000000000000000000000000000000000000000000000000600052602160045260246000fd5b8152602001908152602001600020600082825461052e9190610cdb565b92505081905550600060405180608001604052803373ffffffffffffffffffffffffffffffffffffffff168152602001846001811115610597577f4e487b7100000000000000000000000000000000000000000000000000000000600052602160045260246000fd5b8152602001838152602001428152509050600081908060018154018082558091505060019003906000526020600020906003020160009091909190915060008201518160000160006101000a81548173ffffffffffffffffffffffffffffffffffffffff021916908373ffffffffffffffffffffffffffffffffffffffff16021790555060208201518160000160146101000a81548160ff0219169083600181111561066c577f4e487b7100000000000000000000000000000000000000000000000000000000600052602160045260246000fd5b0217905550604082015181600101908051906020019061068d9291906107b1565b506060820151816002015550503373ffffffffffffffffffffffffffffffffffffffff167f0ff94fec3112de81726d79117e091c7c9d47da8a38c73e8cec7ee350a61898a642846040516106e2929190610bef565b60405180910390a2505050565b610785816040516024016107039190610bb2565b6040516020818303038152906040527f41304fac000000000000000000000000000000000000000000000000000000007bffffffffffffffffffffffffffffffffffffffffffffffffffffffff19166020820180517bffffffffffffffffffffffffffffffffffffffffffffffffffffffff8381831617835250505050610788565b50565b60008151905060006a636f6e736f6c652e6c6f679050602083016000808483855afa5050505050565b8280546107bd90610dd4565b90600052602060002090601f0160209004810192826107df5760008555610826565b82601f106107f857805160ff1916838001178555610826565b82800160010185558215610826579182015b8281111561082557825182559160200191906001019061080a565b5b5090506108339190610837565b5090565b5b80821115610850576000816000905550600101610838565b5090565b600061086761086284610c44565b610c1f565b90508281526020810184848401111561087f57600080fd5b61088a848285610d92565b509392505050565b6000813590506108a181610f18565b92915050565b600082601f8301126108b857600080fd5b81356108c8848260208601610854565b91505092915050565b6000813590506108e081610f28565b92915050565b6000602082840312156108f857600080fd5b600061090684828501610892565b91505092915050565b6000806040838503121561092257600080fd5b600061093085828601610892565b925050602083013567ffffffffffffffff81111561094d57600080fd5b610959858286016108a7565b9150509250929050565b60006020828403121561097557600080fd5b6000610983848285016108d1565b91505092915050565b60006109988383610ac3565b905092915050565b6109a981610d31565b82525050565b6109b881610d31565b82525050565b60006109c982610c85565b6109d38185610ca8565b9350836020820285016109e585610c75565b8060005b85811015610a215784840389528151610a02858261098c565b9450610a0d83610c9b565b925060208a019950506001810190506109e9565b50829750879550505050505092915050565b610a3c81610d80565b82525050565b610a4b81610d80565b82525050565b6000610a5c82610c90565b610a668185610cb9565b9350610a76818560208601610da1565b610a7f81610ef3565b840191505092915050565b6000610a9582610c90565b610a9f8185610cca565b9350610aaf818560208601610da1565b610ab881610ef3565b840191505092915050565b6000608083016000830151610adb60008601826109a0565b506020830151610aee6020860182610a33565b5060408301518482036040860152610b068282610a51565b9150506060830151610b1b6060860182610b26565b508091505092915050565b610b2f81610d76565b82525050565b610b3e81610d76565b82525050565b6000608082019050610b5960008301876109af565b610b666020830186610a42565b8181036040830152610b788185610a8a565b9050610b876060830184610b35565b95945050505050565b60006020820190508181036000830152610baa81846109be565b905092915050565b60006020820190508181036000830152610bcc8184610a8a565b905092915050565b6000602082019050610be96000830184610b35565b92915050565b6000604082019050610c046000830185610b35565b8181036020830152610c168184610a8a565b90509392505050565b6000610c29610c3a565b9050610c358282610e06565b919050565b6000604051905090565b600067ffffffffffffffff821115610c5f57610c5e610ec4565b5b610c6882610ef3565b9050602081019050919050565b6000819050602082019050919050565b600081519050919050565b600081519050919050565b6000602082019050919050565b600082825260208201905092915050565b600082825260208201905092915050565b600082825260208201905092915050565b6000610ce682610d76565b9150610cf183610d76565b9250827fffffffffffffffffffffffffffffffffffffffffffffffffffffffffffffffff03821115610d2657610d25610e37565b5b828201905092915050565b6000610d3c82610d56565b9050919050565b6000819050610d5182610f04565b919050565b600073ffffffffffffffffffffffffffffffffffffffff82169050919050565b6000819050919050565b6000610d8b82610d43565b9050919050565b82818337600083830152505050565b60005b83811015610dbf578082015181840152602081019050610da4565b83811115610dce576000848401525b50505050565b60006002820490506001821680610dec57607f821691505b60208210811415610e0057610dff610e95565b5b50919050565b610e0f82610ef3565b810181811067ffffffffffffffff82111715610e2e57610e2d610ec4565b5b80604052505050565b7f4e487b7100000000000000000000000000000000000000000000000000000000600052601160045260246000fd5b7f4e487b7100000000000000000000000000000000000000000000000000000000600052602160045260246000fd5b7f4e487b7100000000000000000000000000000000000000000000000000000000600052602260045260246000fd5b7f4e487b7100000000000000000000000000000000000000000000000000000000600052604160045260246000fd5b6000601f19601f8301169050919050565b60028110610f1557610f14610e66565b5b50565b60028110610f2557600080fd5b50565b610f3181610d76565b8114610f3c57600080fd5b5056fea2646970667358221220c7465a25aba67c70a6e482e9c82c4453b5b1795c62f839be3073ec373a1d9ee464736f6c63430008040033",
  "linkReferences": {},
  "deployedLinkReferences": {}
}